{"abi":[{"type":"constructor","inputs":[],"stateMutability":"nonpayable"},{"type":"function","name":"BREACH_PENALTY","inputs":[],"outputs":[{"name":"","type":"uint256","internalType":"uint256"}],"stateMutability":"view"},{"type":"function","name":"FULFILLMENT_REWARD","inputs":[],"outputs":[{"name":"","type":"uint256","internalType":"uint256"}],"stateMutability":"view"},{"type":"function","name":"INITIAL_SCORE","inputs":[],"outputs":[{"name":"","type":"uint256","internalType":"uint256"}],"stateMutability":"view"},{"type":"function","name":"MAX_SCORE","inputs":[],"outputs":[{"name":"","type":"uint256","internalType":"uint256"}],"stateMutability":"view"},{"type":"function","name":"agentRegistry","inputs":[],"outputs":[{"name":"","type":"address","internalType":"address"}],"stateMutability":"view"},{"type":"function","name":"anchorExecutionLog","inputs":[{"name":"agent","type":"address","internalType":"address"},{"name":"cid","type":"string","internalType":"string"}],"outputs":[],"stateMutability":"nonpayable"},{"type":"function","name":"covenantProtocol","inputs":[],"outputs":[{"name":"","type":"address","internalType":"address"}],"stateMutability":"view"},{"type":"function","name":"getExecutionLogs","inputs":[{"name":"agent","type":"address","internalType":"address"}],"outputs":[{"name":"","type":"string[]","internalType":"string[]"}],"stateMutability":"view"},{"type":"function","name":"getRecord","inputs":[{"name":"agent","type":"address","internalType":"address"}],"outputs":[{"name":"","type":"tuple","internalType":"struct ReputationSystem.ReputationRecord","components":[{"name":"score","type":"uint256","internalType":"uint256"},{"name":"totalCovenants","type":"uint256","internalType":"uint256"},{"name":"fulfilled","type":"uint256","internalType":"uint256"},{"name":"breached","type":"uint256","internalType":"uint256"},{"name":"lastUpdated","type":"uint256","internalType":"uint256"},{"name":"executionLogCIDs","type":"string[]","internalType":"string[]"}]}],"stateMutability":"view"},{"type":"function","name":"getScore","inputs":[{"name":"agent","type":"address","internalType":"address"}],"outputs":[{"name":"","type":"uint256","internalType":"uint256"}],"stateMutability":"view"},{"type":"function","name":"getSuccessRate","inputs":[{"name":"agent","type":"address","internalType":"address"}],"outputs":[{"name":"","type":"uint256","internalType":"uint256"}],"stateMutability":"view"},{"type":"function","name":"getTier","inputs":[{"name":"agent","type":"address","internalType":"address"}],"outputs":[{"name":"","type":"string","internalType":"string"}],"stateMutability":"view"},{"type":"function","name":"initializeAgent","inputs":[{"name":"agent","type":"address","internalType":"address"}],"outputs":[],"stateMutability":"nonpayable"},{"type":"function","name":"initialized","inputs":[{"name":"","type":"address","internalType":"address"}],"outputs":[{"name":"","type":"bool","internalType":"bool"}],"stateMutability":"view"},{"type":"function","name":"owner","inputs":[],"outputs":[{"name":"","type":"address","internalType":"address"}],"stateMutability":"view"},{"type":"function","name":"recordBreach","inputs":[{"name":"agent","type":"address","internalType":"address"}],"outputs":[],"stateMutability":"nonpayable"},{"type":"function","name":"recordFulfillment","inputs":[{"name":"agent","type":"address","internalType":"address"}],"outputs":[],"stateMutability":"nonpayable"},{"type":"function","name":"records","inputs":[{"name":"","type":"address","internalType":"address"}],"outputs":[{"name":"score","type":"uint256","internalType":"uint256"},{"name":"totalCovenants","type":"uint256","internalType":"uint256"},{"name":"fulfilled","type":"uint256","internalType":"uint256"},{"name":"breached","type":"uint256","internalType":"uint256"},{"name":"lastUpdated","type":"uint256","internalType":"uint256"}],"stateMutability":"view"},{"type":"function","name":"setAgentRegistry","inputs":[{"name":"_agentRegistry","type":"address","internalType":"address"}],"outputs":[],"stateMutability":"nonpayable"},{"type":"function","name":"setCovenantProtocol","inputs":[{"name":"_covenantProtocol","type":"address","internalType":"address"}],"outputs":[],"stateMutability":"nonpayable"},{"type":"event","name":"ExecutionLogAnchored","inputs":[{"name":"agent","type":"address","indexed":true,"internalType":"address"},{"name":"cid","type":"string","indexed":false,"internalType":"string"},{"name":"timestamp","type":"uint256","indexed":false,"internalType":"uint256"}],"anonymous":false},{"type":"event","name":"ReputationInitialized","inputs":[{"name":"agent","type":"address","indexed":true,"internalType":"address"},{"name":"initialScore","type":"uint256","indexed":false,"internalType":"uint256"}],"anonymous":false},{"type":"event","name":"ReputationUpdated","inputs":[{"name":"agent","type":"address","indexed":true,"internalType":"address"},{"name":"oldScore","type":"uint256","indexed":false,"internalType":"uint256"},{"name":"newScore","type":"uint256","indexed":false,"internalType":"uint256"},{"name":"positive","type":"bool","indexed":false,"internalType":"bool"}],"anonymous":false}],"bytecode":{"object":"0x60808060405234602757600480546001600160a01b03191633179055611242908161002c8239f35b5f80fdfe6080806040526004361015610012575f80fd5b5f3560e01c9081630d1cfcae14610d3e5750806327ff622314610d2257806328342ecf14610cd2578063293e082714610caa5780632bbffec314610b6d5780633fbb5a5314610b52578063469e906714610aef57806346a0eb35146108a857806350865ee61461057b578063617fba041461043d578063741863761461030f5780638da5cb5b146102e7578063b45aae52146102ab578063cb51037314610288578063cbca47db1461024b578063d47875d014610220578063dbae3e3514610205578063dd79fb9a14610168578063de3303731461014c5763fea0e28a146100f8575f80fd5b3461014857602036600319011261014857610111610d61565b61012660018060a01b03600454163314610d9b565b600280546001600160a01b0319166001600160a01b0392909216919091179055005b5f80fd5b34610148575f36600319011261014857602060405161012c8152f35b34610148576020366003190112610148576001600160a01b03610189610d61565b165f525f60205261019f600560405f2001610f6e565b6040518091602082016020835281518091526040830190602060408260051b8601019301915f905b8282106101d657505050500390f35b919360019193955060206101f58192603f198a82030186528851610d77565b96019201920185949391926101c7565b34610148575f36600319011261014857602060405160198152f35b3461014857602036600319011261014857602061024361023e610d61565b6111da565b604051908152f35b34610148576020366003190112610148576001600160a01b0361026c610d61565b165f526001602052602060ff60405f2054166040519015158152f35b346101485760203660031901126101485760206102436102a6610d61565b611197565b34610148576020366003190112610148576102e36102cf6102ca610d61565b611058565b604051918291602083526020830190610d77565b0390f35b34610148575f366003190112610148576004546040516001600160a01b039091168152602090f35b3461014857602036600319011261014857610328610d61565b6002546001600160a01b031633148015610429575b8015610415575b61034d90610de7565b6001600160a01b03165f818152600160205260409020546103709060ff16610e33565b805f525f60205260405f208054906019820191828111610401577f57937c3230bca65bddb26bb4536ac3c4186490482e16ca58549f88791c7f9ed7926060926103e882116103f7575b818155600181016103ca8154610e8f565b9055600281016103da8154610e8f565b9055600442910155604051918252602082015260016040820152a2005b6103e891506103b9565b634e487b7160e01b5f52601160045260245ffd5b506004546001600160a01b03163314610344565b506003546001600160a01b0316331461033d565b3461014857602036600319011261014857610456610d61565b606060a060405161046681610f30565b5f81525f60208201525f60408201525f838201525f6080820152015260018060a01b03165f525f60205260405f206040516104a081610f30565b815481526001820154906020810191825260028301549260408201938452600381015490606083019182526104e360056004830154926080860193845201610f6e565b9160a084019283526040519586956020875260e08701955160208801525160408701525160608601525160808501525160a0840152519060c080840152815180915261010083019060206101008260051b8601019301915f905b82821061054c57505050500390f35b9193600191939550602061056b819260ff198a82030186528851610d77565b960192019201859493919261053d565b3461014857602036600319011261014857610594610d61565b6002546001600160a01b031633148015610894575b8015610880575b6105b990610de7565b6001600160a01b03165f8181526001602052604090205460ff1661082d576040519060206105e78184610f4c565b5f835260056040516105f881610f30565b61012c81528281015f8152604082015f815260608301905f8252608084019242845260a08501988952875f525f875260405f2094518555516001850155516002840155516003830155516004820155019251805190600160401b821161079e57829085548387558084106107b2575b5001935f52815f205f945b8286106106bc57847e0143ba88ded9808e3f60de522fa585f0874534e7a2fe23b106311a77577f5585825f526001815260405f20600160ff1982541617905560405161012c8152a2005b805190815167ffffffffffffffff811161079e5785926106e6826106e08754610e9d565b87610eeb565b8390601f831160011461073457826001959386959361071a935f92610729575b50508160011b915f199060031b1c19161790565b85555b01920195019490610672565b015190508c80610706565b93929190601f19821690865f52845f20915f5b81811061078657509183916001978897969588951061076e575b505050811b01855561071d565b01515f1960f88460031b161c191690558b8080610761565b8783015184558a966001909401939283019201610747565b634e487b7160e01b5f52604160045260245ffd5b865f5283835f2091820191015b8181106107cc5750610667565b6001919293506107dc8154610e9d565b806107ed575b5001908492916107bf565b601f8111831461080257505f81555b886107e2565b61081d90825f5283601f895f20920160051c82019101610ed5565b805f525f868120818355556107fc565b60405162461bcd60e51b815260206004820152602560248201527f52657075746174696f6e53797374656d3a20616c726561647920696e697469616044820152641b1a5e995960da1b6064820152608490fd5b506004546001600160a01b031633146105b0565b506003546001600160a01b031633146105a9565b34610148576040366003190112610148576108c1610d61565b60243567ffffffffffffffff811161014857366023820112156101485780600401359167ffffffffffffffff8311610148573660248484010111610148576002546001600160a01b031633148015610adb575b8015610ac7575b61092490610de7565b60018060a01b031690815f52600160205261094560ff60405f205416610e33565b815f525f602052600560405f2001805490600160401b82101561079e5760018201808255821015610ab3575f5260205f20019261098c816109868654610e9d565b86610eeb565b5f93601f8211600114610a245791816024936109e2826060957f954021df9d69ae943e15ef62e01857a92ab7f52d9ea422aaf7b5750935f7383d98995f91610a17575b508160011b915f199060031b1c19161790565b90555b806040519485936040855282604086015201848401375f828201840152426020830152601f01601f19168101030190a2005b889150860101358a6109cf565b601f198216815f5260205f20905f5b818110610a9857509183917f954021df9d69ae943e15ef62e01857a92ab7f52d9ea422aaf7b5750935f7383d96976060956024979510610a7d575b5050600182811b0190556109e5565b84018601355f19600385901b60f8161c191690558780610a6e565b85880160240135835560209788019760019093019201610a33565b634e487b7160e01b5f52603260045260245ffd5b506004546001600160a01b0316331461091b565b506003546001600160a01b03163314610914565b34610148576020366003190112610148576001600160a01b03610b10610d61565b165f525f60205260a060405f20805490600181015490600281015460046003830154920154926040519485526020850152604084015260608301526080820152f35b34610148575f366003190112610148576020604051604b8152f35b3461014857602036600319011261014857610b86610d61565b6002546001600160a01b031633148015610c96575b8015610c82575b610bab90610de7565b6001600160a01b03165f81815260016020526040902054610bce9060ff16610e33565b805f525f60205260405f208054604b81115f14610c5657604a19810190808211610401577f57937c3230bca65bddb26bb4536ac3c4186490482e16ca58549f88791c7f9ed792606092905b81815560018101610c2a8154610e8f565b905560038101610c3a8154610e8f565b905560044291015560405191825260208201525f6040820152a2005b6060907f57937c3230bca65bddb26bb4536ac3c4186490482e16ca58549f88791c7f9ed7925f90610c19565b506004546001600160a01b03163314610ba2565b506003546001600160a01b03163314610b9b565b34610148575f366003190112610148576002546040516001600160a01b039091168152602090f35b3461014857602036600319011261014857610ceb610d61565b610d0060018060a01b03600454163314610d9b565b600380546001600160a01b0319166001600160a01b0392909216919091179055005b34610148575f3660031901126101485760206040516103e88152f35b34610148575f366003190112610148576003546001600160a01b03168152602090f35b600435906001600160a01b038216820361014857565b805180835260209291819084018484015e5f828201840152601f01601f1916010190565b15610da257565b60405162461bcd60e51b815260206004820152601b60248201527f52657075746174696f6e53797374656d3a206e6f74206f776e657200000000006044820152606490fd5b15610dee57565b60405162461bcd60e51b815260206004820152601e60248201527f52657075746174696f6e53797374656d3a20756e617574686f72697a656400006044820152606490fd5b15610e3a57565b60405162461bcd60e51b815260206004820152602760248201527f52657075746174696f6e53797374656d3a206167656e74206e6f7420696e69746044820152661a585b1a5e995960ca1b6064820152608490fd5b5f1981146104015760010190565b90600182811c92168015610ecb575b6020831014610eb757565b634e487b7160e01b5f52602260045260245ffd5b91607f1691610eac565b818110610ee0575050565b5f8155600101610ed5565b9190601f8111610efa57505050565b610f24925f5260205f20906020601f840160051c83019310610f26575b601f0160051c0190610ed5565b565b9091508190610f17565b60c0810190811067ffffffffffffffff82111761079e57604052565b90601f8019910116810190811067ffffffffffffffff82111761079e57604052565b9081549167ffffffffffffffff831161079e5760208360051b0192610f966040519485610f4c565b80845260208401915f5260205f20915f905b828210610fb55750505050565b6040515f8554610fc481610e9d565b80845290600181169081156110355750600114610ffe575b5060019282610ff085946020940382610f4c565b815201940191019092610fa8565b5f878152602081209092505b81831061101f57505081016020016001610fdc565b600181602092548386880101520192019161100a565b60ff191660208581019190915291151560051b8401909101915060019050610fdc565b6001600160a01b03165f8181526001602052604090205460ff161561116c575f525f60205260405f2054610384811015611148576102ee811015611122576101f48110156110f85760c811156110cf576040516110b6604082610f4c565b6009815268155b9d1c9d5cdd195960ba1b602082015290565b6040516110dd604082610f4c565b600b81526a141c9bdd9a5cda5bdb985b60aa1b602082015290565b50604051611107604082610f4c565b600b81526a115cdd18589b1a5cda195960aa1b602082015290565b50604051611131604082610f4c565b6007815266151c9d5cdd195960ca1b602082015290565b50604051611157604082610f4c565b6005815264456c69746560d81b602082015290565b5060405161117b604082610f4c565b600c81526b155b9c9959da5cdd195c995960a21b602082015290565b6001600160a01b03165f90815260208190526040902060018101549081156111d45760020154606481029080820460641490151715610401570490565b50505f90565b6001600160a01b03165f8181526001602052604090205460ff1615611207575f525f60205260405f205490565b505f9056fea2646970667358221220f65113fcad7e55d782994e1bf931f46794475f66c112dc98ea451101859ea17a64736f6c634300081a0033","linkReferences":{}},"methodIdentifiers":{"BREACH_PENALTY()":"3fbb5a53","FULFILLMENT_REWARD()":"dbae3e35","INITIAL_SCORE()":"de330373","MAX_SCORE()":"27ff6223","agentRegistry()":"0d1cfcae","anchorExecutionLog(address,string)":"46a0eb35","covenantProtocol()":"293e0827","getExecutionLogs(address)":"dd79fb9a","getRecord(address)":"617fba04","getScore(address)":"d47875d0","getSuccessRate(address)":"cb510373","getTier(address)":"b45aae52","initializeAgent(address)":"50865ee6","initialized(address)":"cbca47db","owner()":"8da5cb5b","recordBreach(address)":"2bbffec3","recordFulfillment(address)":"74186376","records(address)":"469e9067","setAgentRegistry(address)":"28342ecf","setCovenantProtocol(address)":"fea0e28a"},"id":21}