{"abi":[{"type":"constructor","inputs":[{"name":"_reputationSystem","type":"address","internalType":"address"},{"name":"_agentRegistry","type":"address","internalType":"address"}],"stateMutability":"nonpayable"},{"type":"receive","stateMutability":"payable"},{"type":"function","name":"MIN_DEADLINE_BUFFER","inputs":[],"outputs":[{"name":"","type":"uint256","internalType":"uint256"}],"stateMutability":"view"},{"type":"function","name":"agentRegistry","inputs":[],"outputs":[{"name":"","type":"address","internalType":"address"}],"stateMutability":"view"},{"type":"function","name":"cancel","inputs":[{"name":"id","type":"uint256","internalType":"uint256"}],"outputs":[],"stateMutability":"nonpayable"},{"type":"function","name":"commitReasoning","inputs":[{"name":"id","type":"uint256","internalType":"uint256"},{"name":"reasoningCommitment","type":"bytes32","internalType":"bytes32"}],"outputs":[],"stateMutability":"nonpayable"},{"type":"function","name":"covenantCount","inputs":[],"outputs":[{"name":"","type":"uint256","internalType":"uint256"}],"stateMutability":"view"},{"type":"function","name":"covenants","inputs":[{"name":"","type":"uint256","internalType":"uint256"}],"outputs":[{"name":"id","type":"uint256","internalType":"uint256"},{"name":"requester","type":"address","internalType":"address"},{"name":"provider","type":"address","internalType":"address"},{"name":"termsHash","type":"string","internalType":"string"},{"name":"termsCID","type":"string","internalType":"string"},{"name":"paymentAmount","type":"uint256","internalType":"uint256"},{"name":"deadline","type":"uint256","internalType":"uint256"},{"name":"state","type":"uint8","internalType":"enum CovenantProtocol.CovenantState"},{"name":"reasoningCommitment","type":"bytes32","internalType":"bytes32"},{"name":"reasoningCID","type":"string","internalType":"string"},{"name":"deliverableCID","type":"string","internalType":"string"},{"name":"createdAt","type":"uint256","internalType":"uint256"},{"name":"committedAt","type":"uint256","internalType":"uint256"},{"name":"fulfilledAt","type":"uint256","internalType":"uint256"},{"name":"delegationData","type":"bytes","internalType":"bytes"},{"name":"minReputationRequired","type":"uint256","internalType":"uint256"}],"stateMutability":"view"},{"type":"function","name":"createCovenant","inputs":[{"name":"provider","type":"address","internalType":"address"},{"name":"termsCID","type":"string","internalType":"string"},{"name":"termsHash","type":"string","internalType":"string"},{"name":"deadline","type":"uint256","internalType":"uint256"},{"name":"minReputationRequired","type":"uint256","internalType":"uint256"},{"name":"delegationData","type":"bytes","internalType":"bytes"}],"outputs":[{"name":"covenantId","type":"uint256","internalType":"uint256"}],"stateMutability":"payable"},{"type":"function","name":"feeRecipient","inputs":[],"outputs":[{"name":"","type":"address","internalType":"address"}],"stateMutability":"view"},{"type":"function","name":"fulfillCovenant","inputs":[{"name":"id","type":"uint256","internalType":"uint256"},{"name":"reasoning","type":"string","internalType":"string"},{"name":"salt","type":"bytes32","internalType":"bytes32"},{"name":"reasoningCID","type":"string","internalType":"string"},{"name":"deliverableCID","type":"string","internalType":"string"}],"outputs":[],"stateMutability":"nonpayable"},{"type":"function","name":"getCovenant","inputs":[{"name":"id","type":"uint256","internalType":"uint256"}],"outputs":[{"name":"","type":"tuple","internalType":"struct CovenantProtocol.Covenant","components":[{"name":"id","type":"uint256","internalType":"uint256"},{"name":"requester","type":"address","internalType":"address"},{"name":"provider","type":"address","internalType":"address"},{"name":"termsHash","type":"string","internalType":"string"},{"name":"termsCID","type":"string","internalType":"string"},{"name":"paymentAmount","type":"uint256","internalType":"uint256"},{"name":"deadline","type":"uint256","internalType":"uint256"},{"name":"state","type":"uint8","internalType":"enum CovenantProtocol.CovenantState"},{"name":"reasoningCommitment","type":"bytes32","internalType":"bytes32"},{"name":"reasoningCID","type":"string","internalType":"string"},{"name":"deliverableCID","type":"string","internalType":"string"},{"name":"createdAt","type":"uint256","internalType":"uint256"},{"name":"committedAt","type":"uint256","internalType":"uint256"},{"name":"fulfilledAt","type":"uint256","internalType":"uint256"},{"name":"delegationData","type":"bytes","internalType":"bytes"},{"name":"minReputationRequired","type":"uint256","internalType":"uint256"}]}],"stateMutability":"view"},{"type":"function","name":"getProviderCovenants","inputs":[{"name":"provider","type":"address","internalType":"address"}],"outputs":[{"name":"","type":"uint256[]","internalType":"uint256[]"}],"stateMutability":"view"},{"type":"function","name":"getRequesterCovenants","inputs":[{"name":"requester","type":"address","internalType":"address"}],"outputs":[{"name":"","type":"uint256[]","internalType":"uint256[]"}],"stateMutability":"view"},{"type":"function","name":"getStateString","inputs":[{"name":"id","type":"uint256","internalType":"uint256"}],"outputs":[{"name":"","type":"string","internalType":"string"}],"stateMutability":"view"},{"type":"function","name":"isExpired","inputs":[{"name":"id","type":"uint256","internalType":"uint256"}],"outputs":[{"name":"","type":"bool","internalType":"bool"}],"stateMutability":"view"},{"type":"function","name":"owner","inputs":[],"outputs":[{"name":"","type":"address","internalType":"address"}],"stateMutability":"view"},{"type":"function","name":"protocolFeesBps","inputs":[],"outputs":[{"name":"","type":"uint256","internalType":"uint256"}],"stateMutability":"view"},{"type":"function","name":"providerCovenants","inputs":[{"name":"","type":"address","internalType":"address"},{"name":"","type":"uint256","internalType":"uint256"}],"outputs":[{"name":"","type":"uint256","internalType":"uint256"}],"stateMutability":"view"},{"type":"function","name":"reputationSystem","inputs":[],"outputs":[{"name":"","type":"address","internalType":"contract IReputationSystem"}],"stateMutability":"view"},{"type":"function","name":"requesterCovenants","inputs":[{"name":"","type":"address","internalType":"address"},{"name":"","type":"uint256","internalType":"uint256"}],"outputs":[{"name":"","type":"uint256","internalType":"uint256"}],"stateMutability":"view"},{"type":"function","name":"setFeeRecipient","inputs":[{"name":"recipient","type":"address","internalType":"address"}],"outputs":[],"stateMutability":"nonpayable"},{"type":"function","name":"setProtocolFee","inputs":[{"name":"bps","type":"uint256","internalType":"uint256"}],"outputs":[],"stateMutability":"nonpayable"},{"type":"function","name":"totalFeesCollected","inputs":[],"outputs":[{"name":"","type":"uint256","internalType":"uint256"}],"stateMutability":"view"},{"type":"function","name":"triggerBreach","inputs":[{"name":"id","type":"uint256","internalType":"uint256"}],"outputs":[],"stateMutability":"nonpayable"},{"type":"event","name":"CovenantBreached","inputs":[{"name":"id","type":"uint256","indexed":true,"internalType":"uint256"},{"name":"provider","type":"address","indexed":true,"internalType":"address"},{"name":"refundAmount","type":"uint256","indexed":false,"internalType":"uint256"},{"name":"timestamp","type":"uint256","indexed":false,"internalType":"uint256"}],"anonymous":false},{"type":"event","name":"CovenantCancelled","inputs":[{"name":"id","type":"uint256","indexed":true,"internalType":"uint256"},{"name":"timestamp","type":"uint256","indexed":false,"internalType":"uint256"}],"anonymous":false},{"type":"event","name":"CovenantCreated","inputs":[{"name":"id","type":"uint256","indexed":true,"internalType":"uint256"},{"name":"requester","type":"address","indexed":true,"internalType":"address"},{"name":"provider","type":"address","indexed":true,"internalType":"address"},{"name":"paymentAmount","type":"uint256","indexed":false,"internalType":"uint256"},{"name":"deadline","type":"uint256","indexed":false,"internalType":"uint256"},{"name":"termsCID","type":"string","indexed":false,"internalType":"string"}],"anonymous":false},{"type":"event","name":"CovenantFulfilled","inputs":[{"name":"id","type":"uint256","indexed":true,"internalType":"uint256"},{"name":"provider","type":"address","indexed":true,"internalType":"address"},{"name":"reasoningCID","type":"string","indexed":false,"internalType":"string"},{"name":"deliverableCID","type":"string","indexed":false,"internalType":"string"},{"name":"paymentReleased","type":"uint256","indexed":false,"internalType":"uint256"},{"name":"timestamp","type":"uint256","indexed":false,"internalType":"uint256"}],"anonymous":false},{"type":"event","name":"ReasoningCommitted","inputs":[{"name":"id","type":"uint256","indexed":true,"internalType":"uint256"},{"name":"provider","type":"address","indexed":true,"internalType":"address"},{"name":"reasoningCommitment","type":"bytes32","indexed":false,"internalType":"bytes32"},{"name":"timestamp","type":"uint256","indexed":false,"internalType":"uint256"}],"anonymous":false}],"bytecode":{"object":"0x60803460a357601f61250338819003918201601f19168301916001600160401b0383118484101760a757808492604094855283398101031260a357604b602060458360bb565b920160bb565b603260075560068054336001600160a01b03199182168117909255600880548216909217909155600480546001600160a01b039485169083161790556005805492909316911617905560405161243490816100cf8239f35b5f80fd5b634e487b7160e01b5f52604160045260245ffd5b51906001600160a01b038216820360a35756fe60a080604052600436101561001c575b50361561001a575f80fd5b005b5f905f3560e01c9081630d1cfcae14611deb5750806317df4d0414611dce57806326e699f214611d9b57806328f4ca3114611c1257806340e58ee514611aae578063412655d21461189b57806346904840146118725780634ef800be1461170957806356a5e181146110f657806360c6d8ae146110d85780636233f8c5146110bb5780636505b39e146106d45780636587eda1146106ab578063665571291461068f578063787dce3d146106115780638d5bd3a71461059f5780638da5cb5b14610576578063b1c005fa146102c6578063ce3644cd14610244578063d6bed24c146101fc578063d9548e53146101cc578063d9bfe262146101755763e74b981b0361000f57346101725760203660031901126101725761013a611f95565b61014f60018060a01b036006541633146123b2565b60018060a01b03166bffffffffffffffffffffffff60a01b600854161760085580f35b80fd5b50346101725760403660031901126101725761018f611f95565b6001600160a01b03168152600260205260408120805460243592908310156101725760206101bd8484611fe4565b90549060031b1c604051908152f35b50346101725760203660031901126101725760066040602092600435815260018452200154421015604051908152f35b503461017257604036600319011261017257610216611f95565b6001600160a01b03168152600360205260408120805460243592908310156101725760206101bd8484611fe4565b5034610172576020366003190112610172576001600160a01b03610266611f95565b168152600360205260408120604051918260208354918281520192825260208220915b8181106102b0576102ac856102a081870382611e9a565b60405191829182611fab565b0390f35b8254845260209093019260019283019201610289565b503461017257602036600319011261017257806101e06040516102e881611e6a565b828152826020820152826040820152606080820152606060808201528260a08201528260c08201528260e082015282610100820152606061012082015260606101408201528261016082015282610180820152826101a082015260606101c0820152015260043581526001602052604081206040519061036782611e6a565b8054825260018101546001600160a01b039081166020840152600282015416604083015261039760038201611ebb565b60608301526103a860048201611ebb565b6080830152600581015460a0830152600681015460c083015260ff60078201541660058110156105625760e08301526008810154610100830152600f906103f160098201611ebb565b610120840152610403600a8201611ebb565b610140840152600b810154610160840152600c810154610180840152600d8101546101a0840152610436600e8201611ebb565b6101c084015201546101e08201526040518091602082528051602083015260018060a01b03602082015116604083015260018060a01b0360408201511660608301526101e061055561051b6105036104b86104a2606087015161020060808a0152610220890190611e0e565b6080870151888203601f190160a08a0152611e0e565b60a086015160c088015260c086015160e08801526104df60e0870151610100890190611f5b565b610100860151610120880152610120860151601f1988830301610140890152611e0e565b610140850151868203601f1901610160880152611e0e565b6101608401516101808601526101808401516101a08601526101a08401516101c08601526101c0840151601f198683030184870152611e0e565b9101516102008301520390f35b634e487b7160e01b84526021600452602484fd5b50346101725780600319360112610172576006546040516001600160a01b039091168152602090f35b5034610172576020366003190112610172576001600160a01b036105c1611f95565b168152600260205260408120604051918260208354918281520192825260208220915b8181106105fb576102ac856102a081870382611e9a565b82548452602090930192600192830192016105e4565b50346101725760203660031901126101725760043561063b60018060a01b036006541633146123b2565b6101f4811161064a5760075580f35b60405162461bcd60e51b815260206004820152601e60248201527f436f76656e616e7450726f746f636f6c3a2066656520746f6f206869676800006044820152606490fd5b50346101725780600319360112610172576020604051603c8152f35b50346101725780600319360112610172576004546040516001600160a01b039091168152602090f35b5060c0366003190112610172576106e9611f95565b906024356001600160401b0381116110b757610709903690600401611f68565b92906044356001600160401b0381116110b35761072a903690600401611f68565b94909260a4356001600160401b0381116110af5761074c903690600401611f68565b9590341561105f576001600160a01b0383161561100f576001600160a01b0383163314610fb657603c4201804211610e025760643510610f65578315610f1457608435151580610f00575b610e16575b8154955f198714610e0257906107e161085c926001890185556040519a6107c28c611e6a565b898c523360208d01526001600160a01b03871660408d01523691612343565b60608a01526107f1368688612343565b60808a01523460a08a015260643560c08a01528260e08a0152826101008a01526020976040516108218a82611e9a565b8481526101208b01526040516108378a82611e9a565b8481526101408b0152426101608b0152836101808b0152836101a08b01523691612343565b6101c08801526084356101e0880152848152600180875260408083208951815560208a015192810180546001600160a01b03199081166001600160a01b0395861617909155918a0151600282018054909316931692909217905560608801518051906001600160401b038211610d1e576108e6826108dd6003860154611e32565b600386016122d4565b8890601f8311600114610d9a576109149291859183610b99575b50508160011b915f199060031b1c19161790565b60038201555b60808801518051906001600160401b038211610d1e5761094a826109416004860154611e32565b600486016122d4565b8890601f8311600114610d32576109779291859183610b995750508160011b915f199060031b1c19161790565b60048201555b60a0880151600582015560c088015160068201556007810160e089015160058110156105625760ff8019835416911617905561010088015160088201556101208801518051906001600160401b038211610d1e576109eb826109e26009860154611e32565b600986016122d4565b8890601f8311600114610cb657610a189291859183610b995750508160011b915f199060031b1c19161790565b60098201555b600a81016101408901518051906001600160401b038211610c4057610a4d82610a478554611e32565b856122d4565b8990601f8311600114610c5457610a7a9291869183610b995750508160011b915f199060031b1c19161790565b90555b610160880151600b820155610180880151600c8201556101a0880151600d820155600e8101976101c08101519889516001600160401b038111610c405788999a610acf82610a47859c9a9b9c54611e32565b8b90601f8311600114610ba45794600f6101e0610b62968b96610b31876040988d987fdfc3ee501f064993767e36ec6b30cea15dc6345d5c121985a24fa297607fd8639f9d610b8e9f92610b995750508160011b915f199060031b1c19161790565b90555b015191015533815260028c52610b4c83838320612379565b6001600160a01b038516815260038c5220612379565b6040519182913483526064358a8401526060604084015260018060a01b03169633966060840191612323565b0390a4604051908152f35b015190505f80610900565b8387528c87209190601f198416888f5b828210610c24575050610b62968b96600187610b8e9c977fdfc3ee501f064993767e36ec6b30cea15dc6345d5c121985a24fa297607fd8639e9c97600f9760409b6101e09810610c0c575b505050811b019055610b34565b01515f1960f88460031b161c191690555f8080610bff565b8484015186558f9c506001909501949384019390810190610bb4565b634e487b7160e01b85526041600452602485fd5b8386528a86209190601f198416875b8d828210610ca0575050908460019594939210610c88575b505050811b019055610a7d565b01515f1960f88460031b161c191690555f8080610c7b565b6001859682939686015181550195019301610c63565b6009840185528985209190601f198416865b8c828210610d08575050908460019594939210610cf0575b505050811b016009820155610a1e565b01515f1960f88460031b161c191690555f8080610ce0565b6001859682939686015181550195019301610cc8565b634e487b7160e01b84526041600452602484fd5b6004840185528985209190601f198416865b8c828210610d84575050908460019594939210610d6c575b505050811b01600482015561097d565b01515f1960f88460031b161c191690555f8080610d5c565b6001859682939686015181550195019301610d44565b6003840185528985209190601f198416865b8c828210610dec575050908460019594939210610dd4575b505050811b01600382015561091a565b01515f1960f88460031b161c191690555f8080610dc4565b6001859682939686015181550195019301610dac565b634e487b7160e01b83526011600452602483fd5b60048054604051630d47875d60e41b81526001600160a01b03868116938201939093529160209183916024918391165afa908115610ef5578391610ebf575b50608435111561079c5760405162461bcd60e51b815260206004820152603260248201527f436f76656e616e7450726f746f636f6c3a2070726f7669646572207265707574604482015271185d1a5bdb881a5b9cdd59999a58da595b9d60721b6064820152608490fd5b90506020813d602011610eed575b81610eda60209383611e9a565b81010312610ee957515f610e55565b8280fd5b3d9150610ecd565b6040513d85823e3d90fd5b506004546001600160a01b03161515610797565b60405162461bcd60e51b8152602060048201526024808201527f436f76656e616e7450726f746f636f6c3a207465726d732043494420726571756044820152631a5c995960e21b6064820152608490fd5b60405162461bcd60e51b815260206004820152602360248201527f436f76656e616e7450726f746f636f6c3a20646561646c696e6520746f6f207360448201526237b7b760e91b6064820152608490fd5b60405162461bcd60e51b815260206004820152602b60248201527f436f76656e616e7450726f746f636f6c3a2063616e6e6f7420636f76656e616e60448201526a3a103bb4ba341039b2b63360a91b6064820152608490fd5b60405162461bcd60e51b815260206004820152602260248201527f436f76656e616e7450726f746f636f6c3a20696e76616c69642070726f76696460448201526132b960f11b6064820152608490fd5b60405162461bcd60e51b815260206004820152602260248201527f436f76656e616e7450726f746f636f6c3a207061796d656e7420726571756972604482015261195960f21b6064820152608490fd5b8580fd5b8380fd5b5080fd5b503461017257806003193601126101725760209054604051908152f35b50346101725780600319360112610172576020600954604051908152f35b50346101725760a0366003190112610172576004356024356001600160401b038111610ee95761112a903690600401611f68565b6064929192356001600160401b0381116117055761114c903690600401611f68565b90916084356001600160401b0381116117015761116d903690600401611f68565b93909161117c8854871061214e565b8588526001602052604088209060028201976111a260018060a01b038a54163314612227565b600783019160ff83541660058110156116ed5760010361169c576111cb6006850154421061227e565b8715611648576111f860208060405184819583830197883781016044358382015203018084520182611e9a565b5190206008830154036115e557805460ff19166002179055600981016001600160401b03851161156457611236856112308354611e32565b836122d4565b8885601f81116001146115835780611262928c91611578575b508160011b915f199060031b1c19161790565b90555b600a81016001600160401b03861161156457611285866112308354611e32565b8886601f811160011461150257806112b0928c916114f757508160011b915f199060031b1c19161790565b90555b42600d82015560045488906001600160a01b031680611497575b50506005015495600754808802908882041488151715611483576127109004908188039788116114835760095482810180911161146f576009555488908190819081908b906001600160a01b03165af16113256121ac565b501561141557808891611394575b5050907fb394afb178ed3ecfc7ab7ebb07e377d8c63d43df41e7392d5b0bab3e5028b22f9361137161137f9360405195608087526080870191612323565b918483036020860152612323565b9360408201524260608201528033940390a380f35b600854929392829182918291906001600160a01b03165af16113b46121ac565b50156113c25790865f611333565b60405162461bcd60e51b815260206004820152602560248201527f436f76656e616e7450726f746f636f6c3a20666565207472616e736665722066604482015264185a5b195960da1b6064820152608490fd5b60405162461bcd60e51b815260206004820152602c60248201527f436f76656e616e7450726f746f636f6c3a207061796d656e7420746f2070726f60448201526b1d9a59195c8819985a5b195960a21b6064820152608490fd5b634e487b7160e01b8a52601160045260248afd5b634e487b7160e01b89526011600452602489fd5b88546001600160a01b0316813b15610ee9578291602483926040519485938492633a0c31bb60e11b845260048401525af180156114ec57156112cd57816114dd91611e9a565b6114e857875f6112cd565b8780fd5b6040513d84823e3d90fd5b90508601355f61124f565b50818a5260208a209087601f1981168c5b818110611549575010611530575b5050600186811b0190556112b3565b8501355f19600389901b60f8161c191690555f80611521565b8884013585556001909401936020938401938b935001611513565b634e487b7160e01b89526041600452602489fd5b90508501355f61124f565b50818a5260208a209086601f1981168c5b8181106115ca5750106115b1575b5050600185811b019055611265565b8401355f19600388901b60f8161c191690555f806115a2565b8784013585556001909401936020938401938a935001611594565b60405162461bcd60e51b815260206004820152603560248201527f436f76656e616e7450726f746f636f6c3a20726561736f6e696e6720646f6573604482015274081b9bdd081b585d18da0818dbdb5b5a5d1b595b9d605a1b6064820152608490fd5b60405162461bcd60e51b815260206004820152602660248201527f436f76656e616e7450726f746f636f6c3a2064656c6976657261626c652072656044820152651c5d5a5c995960d21b6064820152608490fd5b60405162461bcd60e51b815260206004820152602360248201527f436f76656e616e7450726f746f636f6c3a206d75737420636f6d6d69742066696044820152621c9cdd60ea1b6064820152608490fd5b634e487b7160e01b8c52602160045260248cfd5b8680fd5b8480fd5b5034610172576040366003190112610172576004356024359061172e8354821061214e565b80835260016020526040832061175160018060a01b036002830154163314612227565b6007810160ff815416600581101561185e57611819576117766006830154421061227e565b83156117c857836008830155600160ff19825416179055600c429101556040519182524260208301527f7b5a2af04863c5b7209d1aa86a444d29da97c10403cbca9b4a092aa13c57a34f60403393a380f35b60405162461bcd60e51b8152602060048201526024808201527f436f76656e616e7450726f746f636f6c3a20696e76616c696420636f6d6d69746044820152631b595b9d60e21b6064820152608490fd5b60405162461bcd60e51b815260206004820152601f60248201527f436f76656e616e7450726f746f636f6c3a20696e76616c6964207374617465006044820152606490fd5b634e487b7160e01b86526021600452602486fd5b50346101725780600319360112610172576008546040516001600160a01b039091168152602090f35b50346119de5760203660031901126119de576004356118bc5f54821061214e565b805f52600160205260405f20906007820160ff8154166005811015611a9a578015908115611a8f575b5015611a3657600683015442106119e257805460ff191660031790556004546001600160a01b03168061197f575b507fbc43346ba6bef2d83332fe524564ba49886876c9010fad8da4bbb3ffdf62d80b6040600584015493611962868080808960018060a01b036001880154165af161195c6121ac565b506121db565b6002015481519485524260208601526001600160a01b031693a380f35b60028301546001600160a01b0316813b156119de575f91602483926040519485938492632bbffec360e01b845260048401525af180156119d35715611913576119cb9193505f90611e9a565b5f915f611913565b6040513d5f823e3d90fd5b5f80fd5b60405162461bcd60e51b815260206004820152602660248201527f436f76656e616e7450726f746f636f6c3a20646561646c696e65206e6f742072604482015265195858da195960d21b6064820152608490fd5b60405162461bcd60e51b815260206004820152602b60248201527f436f76656e616e7450726f746f636f6c3a20636f76656e616e7420616c72656160448201526a191e481c995cdbdb1d995960aa1b6064820152608490fd5b60019150145f6118e5565b634e487b7160e01b5f52602160045260245ffd5b346119de5760203660031901126119de57600435611ace5f54821061214e565b805f52600160205260405f206001810160018060a01b038154163303611bc157600782019160ff8354166005811015611a9a57611b6357825460ff191660041790925554600590910154611b37915f918291829182916001600160a01b03165af161195c6121ac565b7f766d37e65872261b7ec7d3148540c34e56df8d44a343e7701c07c76bd7e4e5a86020604051428152a2005b60405162461bcd60e51b815260206004820152603060248201527f436f76656e616e7450726f746f636f6c3a2063616e206f6e6c792063616e636560448201526f6c204f50454e20636f76656e616e747360801b6064820152608490fd5b60405162461bcd60e51b815260206004820152602360248201527f436f76656e616e7450726f746f636f6c3a206e6f7420746865207265717565736044820152623a32b960e91b6064820152608490fd5b346119de5760203660031901126119de576004355f90815260016020819052604090912080549181015460028201546001600160a01b0390811691839116611c5c60038301611ebb565b611c6860048401611ebb565b60058401546006850154600786015460ff1660088701549160098801611c8d90611ebb565b94611c9a600a8a01611ebb565b96600b8a01549a600c8b015499600d8c01549b600e01611cb990611ebb565b9d600f01549e604051608052608051526080516020015260805160400152608051606001610200905260805161020001611cf291611e0e565b608051810360805160800152611d0791611e0e565b9360805160a0015260805160c0015260805160e001611d2591611f5b565b608051610100015260805181036080516101200152611d4391611e0e565b60805181036080516101400152611d5991611e0e565b92608051610160015260805161018001526080516101a0015260805181036080516101c00152611d8891611e0e565b906080516101e001526080519003608051f35b346119de5760203660031901126119de576102ac611dba600435612028565b604051918291602083526020830190611e0e565b346119de575f3660031901126119de576020600754604051908152f35b346119de575f3660031901126119de576005546001600160a01b03168152602090f35b805180835260209291819084018484015e5f828201840152601f01601f1916010190565b90600182811c92168015611e60575b6020831014611e4c57565b634e487b7160e01b5f52602260045260245ffd5b91607f1691611e41565b61020081019081106001600160401b03821117611e8657604052565b634e487b7160e01b5f52604160045260245ffd5b90601f801991011681019081106001600160401b03821117611e8657604052565b9060405191825f825492611ece84611e32565b8084529360018116908115611f395750600114611ef5575b50611ef392500383611e9a565b565b90505f9291925260205f20905f915b818310611f1d575050906020611ef3928201015f611ee6565b6020919350806001915483858901015201910190918492611f04565b905060209250611ef394915060ff191682840152151560051b8201015f611ee6565b906005821015611a9a5752565b9181601f840112156119de578235916001600160401b0383116119de57602083818601950101116119de57565b600435906001600160a01b03821682036119de57565b60206040818301928281528451809452019201905f5b818110611fce5750505090565b8251845260209384019390920191600101611fc1565b8054821015611ff9575f5260205f2001905f90565b634e487b7160e01b5f52603260045260245ffd5b6001600160401b038111611e8657601f01601f191660200190565b5f52600160205260ff600760405f200154166005811015611a9a57801561212b576001811461210357600281146120db57600381146120b45760041461208d57604051612076604082611e9a565b60078152662aa725a727aba760c91b602082015290565b60405161209b604082611e9a565b600981526810d05390d15313115160ba1b602082015290565b506040516120c3604082611e9a565b60088152671094915050d2115160c21b602082015290565b506040516120ea604082611e9a565b600981526811955311925313115160ba1b602082015290565b50604051612112604082611e9a565b600981526810d3d353525515115160ba1b602082015290565b5060405161213a604082611e9a565b600481526327a822a760e11b602082015290565b1561215557565b60405162461bcd60e51b815260206004820152602960248201527f436f76656e616e7450726f746f636f6c3a20636f76656e616e7420646f6573206044820152681b9bdd08195e1a5cdd60ba1b6064820152608490fd5b3d156121d6573d906121bd8261200d565b916121cb6040519384611e9a565b82523d5f602084013e565b606090565b156121e257565b60405162461bcd60e51b815260206004820152601f60248201527f436f76656e616e7450726f746f636f6c3a20726566756e64206661696c6564006044820152606490fd5b1561222e57565b60405162461bcd60e51b815260206004820152602260248201527f436f76656e616e7450726f746f636f6c3a206e6f74207468652070726f76696460448201526132b960f11b6064820152608490fd5b1561228557565b60405162461bcd60e51b815260206004820152602160248201527f436f76656e616e7450726f746f636f6c3a20646561646c696e652070617373656044820152601960fa1b6064820152608490fd5b601f82116122e157505050565b5f5260205f20906020601f840160051c83019310612319575b601f0160051c01905b81811061230e575050565b5f8155600101612303565b90915081906122fa565b908060209392818452848401375f828201840152601f01601f1916010190565b92919261234f8261200d565b9161235d6040519384611e9a565b8294818452818301116119de578281602093845f960137010152565b805468010000000000000000811015611e865761239b91600182018155611fe4565b819291549060031b91821b915f19901b1916179055565b156123b957565b60405162461bcd60e51b815260206004820152601b60248201527f436f76656e616e7450726f746f636f6c3a206e6f74206f776e657200000000006044820152606490fdfea2646970667358221220d497e9e23a03a7c57673722e70f5e652485ff02b0c6231b01b34b9b1c22b9d1a64736f6c634300081a0033","linkReferences":{}},"methodIdentifiers":{"MIN_DEADLINE_BUFFER()":"66557129","agentRegistry()":"0d1cfcae","cancel(uint256)":"40e58ee5","commitReasoning(uint256,bytes32)":"4ef800be","covenantCount()":"6233f8c5","covenants(uint256)":"28f4ca31","createCovenant(address,string,string,uint256,uint256,bytes)":"6505b39e","feeRecipient()":"46904840","fulfillCovenant(uint256,string,bytes32,string,string)":"56a5e181","getCovenant(uint256)":"b1c005fa","getProviderCovenants(address)":"ce3644cd","getRequesterCovenants(address)":"8d5bd3a7","getStateString(uint256)":"26e699f2","isExpired(uint256)":"d9548e53","owner()":"8da5cb5b","protocolFeesBps()":"17df4d04","providerCovenants(address,uint256)":"d6bed24c","reputationSystem()":"6587eda1","requesterCovenants(address,uint256)":"d9bfe262","setFeeRecipient(address)":"e74b981b","setProtocolFee(uint256)":"787dce3d","totalFeesCollected()":"60c6d8ae","triggerBreach(uint256)":"412655d2"},"id":20}