{"abi":[{"type":"constructor","inputs":[],"stateMutability":"nonpayable"},{"type":"function","name":"agentAddresses","inputs":[{"name":"","type":"uint256","internalType":"uint256"}],"outputs":[{"name":"","type":"address","internalType":"address"}],"stateMutability":"view"},{"type":"function","name":"agents","inputs":[{"name":"","type":"address","internalType":"address"}],"outputs":[{"name":"owner","type":"address","internalType":"address"},{"name":"constitutionCID","type":"string","internalType":"string"},{"name":"name","type":"string","internalType":"string"},{"name":"agentType","type":"string","internalType":"string"},{"name":"registeredAt","type":"uint256","internalType":"uint256"},{"name":"active","type":"bool","internalType":"bool"}],"stateMutability":"view"},{"type":"function","name":"covenantProtocol","inputs":[],"outputs":[{"name":"","type":"address","internalType":"address"}],"stateMutability":"view"},{"type":"function","name":"deactivate","inputs":[{"name":"agentAddress","type":"address","internalType":"address"}],"outputs":[],"stateMutability":"nonpayable"},{"type":"function","name":"getAgent","inputs":[{"name":"agentAddress","type":"address","internalType":"address"}],"outputs":[{"name":"","type":"tuple","internalType":"struct AgentRegistry.AgentProfile","components":[{"name":"owner","type":"address","internalType":"address"},{"name":"constitutionCID","type":"string","internalType":"string"},{"name":"name","type":"string","internalType":"string"},{"name":"agentType","type":"string","internalType":"string"},{"name":"registeredAt","type":"uint256","internalType":"uint256"},{"name":"active","type":"bool","internalType":"bool"}]}],"stateMutability":"view"},{"type":"function","name":"getAllAgents","inputs":[],"outputs":[{"name":"","type":"address[]","internalType":"address[]"}],"stateMutability":"view"},{"type":"function","name":"isActive","inputs":[{"name":"agentAddress","type":"address","internalType":"address"}],"outputs":[{"name":"","type":"bool","internalType":"bool"}],"stateMutability":"view"},{"type":"function","name":"isRegistered","inputs":[{"name":"","type":"address","internalType":"address"}],"outputs":[{"name":"","type":"bool","internalType":"bool"}],"stateMutability":"view"},{"type":"function","name":"owner","inputs":[],"outputs":[{"name":"","type":"address","internalType":"address"}],"stateMutability":"view"},{"type":"function","name":"register","inputs":[{"name":"agentAddress","type":"address","internalType":"address"},{"name":"name","type":"string","internalType":"string"},{"name":"agentType","type":"string","internalType":"string"},{"name":"constitutionCID","type":"string","internalType":"string"}],"outputs":[],"stateMutability":"nonpayable"},{"type":"function","name":"reputationSystem","inputs":[],"outputs":[{"name":"","type":"address","internalType":"contract IReputationSystem"}],"stateMutability":"view"},{"type":"function","name":"setCovenantProtocol","inputs":[{"name":"_covenantProtocol","type":"address","internalType":"address"}],"outputs":[],"stateMutability":"nonpayable"},{"type":"function","name":"setReputationSystem","inputs":[{"name":"_reputationSystem","type":"address","internalType":"address"}],"outputs":[],"stateMutability":"nonpayable"},{"type":"function","name":"totalAgents","inputs":[],"outputs":[{"name":"","type":"uint256","internalType":"uint256"}],"stateMutability":"view"},{"type":"function","name":"updateConstitution","inputs":[{"name":"agentAddress","type":"address","internalType":"address"},{"name":"newCID","type":"string","internalType":"string"}],"outputs":[],"stateMutability":"nonpayable"},{"type":"event","name":"AgentDeactivated","inputs":[{"name":"agentAddress","type":"address","indexed":true,"internalType":"address"},{"name":"timestamp","type":"uint256","indexed":false,"internalType":"uint256"}],"anonymous":false},{"type":"event","name":"AgentRegistered","inputs":[{"name":"agentAddress","type":"address","indexed":true,"internalType":"address"},{"name":"name","type":"string","indexed":false,"internalType":"string"},{"name":"agentType","type":"string","indexed":false,"internalType":"string"},{"name":"constitutionCID","type":"string","indexed":false,"internalType":"string"},{"name":"timestamp","type":"uint256","indexed":false,"internalType":"uint256"}],"anonymous":false},{"type":"event","name":"ConstitutionUpdated","inputs":[{"name":"agentAddress","type":"address","indexed":true,"internalType":"address"},{"name":"oldCID","type":"string","indexed":false,"internalType":"string"},{"name":"newCID","type":"string","indexed":false,"internalType":"string"},{"name":"timestamp","type":"uint256","indexed":false,"internalType":"uint256"}],"anonymous":false}],"bytecode":{"object":"0x60808060405234602757600580546001600160a01b031916331790556111f5908161002c8239f35b5f80fdfe6080806040526004361015610012575f80fd5b5f905f3560e01c908163063d93d814610899575080630d87dc2814610643578063293e08271461061a57806331143cee146105cd5780633ea053eb146105205780636587eda1146104f7578063860e4ac61461042f5780638da5cb5b146104065780639f8a13d7146103a4578063a7676a6314610360578063c3c5a54714610321578063c505371214610303578063fb3551ff146101cd578063fd66091e146101125763fea0e28a146100c3575f80fd5b3461010f57602036600319011261010f576100dc610e70565b6100f160018060a01b03600554163314611173565b60018060a01b03166001600160601b0360a01b600454161760045580f35b80fd5b503461010f57602036600319011261010f576040906001600160a01b03610137610e70565b16815260208190522080546001600160a01b031661015760018301610f7a565b9161016460028201610f7a565b6101bc61017360038401610f7a565b6101ae60ff6005600487015496015416936101a0604051988998895260c060208a015260c0890190610ee0565b908782036040890152610ee0565b908582036060870152610ee0565b916080840152151560a08301520390f35b503461010f57602036600319011261010f576040906101ea610e70565b8160a084516101f881610f3c565b82815260606020820152606086820152606080820152826080820152015260018060a01b03168152806020522060405161023181610f3c565b81546001600160a01b0316815261024a60018301610f7a565b916020820192835261025e60028201610f7a565b604083019081526102f061027460038401610f7a565b606085019081526102dd60ff6005600487015496608089019788520154169360a0870194151585526102ca60405198899860208a5260018060a01b0390511660208a01525160c060408a015260e0890190610ee0565b9051878203601f19016060890152610ee0565b9051858203601f19016080870152610ee0565b915160a084015251151560c08301520390f35b503461010f578060031936011261010f576020600254604051908152f35b503461010f57602036600319011261010f5760209060ff906040906001600160a01b0361034c610e70565b168152600184522054166040519015158152f35b503461010f57602036600319011261010f576004359060025482101561010f57602061038b83610eb4565b905460405160039290921b1c6001600160a01b03168152f35b503461010f57602036600319011261010f576020906001600160a01b036103c9610e70565b16908181526001835260ff60408220541691826103ed575b50506040519015158152f35b8152808352604090206005015460ff1690505f806103e1565b503461010f578060031936011261010f576005546040516001600160a01b039091168152602090f35b503461010f578060031936011261010f5760405180602060025491828152018091600285527f405787fa12a823e0f2b7631cc41b3ba8828b3321ca811111fa75cd3aa3bb5ace90855b8181106104d8575050508261048e910383610f58565b604051928392602084019060208552518091526040840192915b8181106104b6575050500390f35b82516001600160a01b03168452859450602093840193909201916001016104a8565b82546001600160a01b0316845260209093019260019283019201610478565b503461010f578060031936011261010f576003546040516001600160a01b039091168152602090f35b503461010f57602036600319011261010f576001600160a01b03610542610e70565b16808252600160205261055b60ff6040842054166110cf565b8082528160205260018060a01b03604083205416331480156105c4575b61058190611127565b808252816020526005604083200160ff1981541690557f0908d0024a3278cb165ed9b5e370dfd4b2c566122efebb355afb5b56e22491586020604051428152a280f35b50338114610578565b503461010f57602036600319011261010f576105e7610e70565b6105fc60018060a01b03600554163314611173565b60018060a01b03166001600160601b0360a01b600354161760035580f35b503461010f578060031936011261010f576004546040516001600160a01b039091168152602090f35b503461010f57604036600319011261010f5761065d610e70565b60243567ffffffffffffffff81116108955761067d903690600401610e86565b909160018060a01b03169182845260016020526106a060ff6040862054166110cf565b8284528360205260018060a01b036040852054163314801561088c575b6106c690611127565b811561084757828452836020526106e260016040862001610f7a565b91838552846020526001604086200167ffffffffffffffff8211610833576107148261070e8354610f04565b83611060565b85601f83116001146107a75792826107909261076b827f21e6fd21c05a55507c4fe650f00c7d7e1d4d368adc563a657ba334a697e11dce9896610782988c9161079c575b508160011b915f199060031b1c19161790565b90555b604051948594606086526060860190610ee0565b9184830360208601526110af565b4260408301520390a280f35b90508501355f610758565b8187526020872090601f198416885b81811061081b575092610782959285927f21e6fd21c05a55507c4fe650f00c7d7e1d4d368adc563a657ba334a697e11dce98966107909610610802575b5050600182811b01905561076e565b8401355f19600385901b60f8161c191690555f806107f3565b9192602060018192868a0135815501940192016107b6565b634e487b7160e01b86526041600452602486fd5b60405162461bcd60e51b815260206004820152601b60248201527f4167656e7452656769737472793a2043494420726571756972656400000000006044820152606490fd5b503383146106bd565b8280fd5b8234610c38576080366003190112610c38576108b3610e70565b9160243567ffffffffffffffff8111610c38576108d4903690600401610e86565b60443567ffffffffffffffff8111610c38576108f4903690600401610e86565b959060643567ffffffffffffffff8111610c3857610916903690600401610e86565b91909260018060a01b031695865f52600160205260ff60405f205416610e2457508115610dce578315610d895760405161094f81610f3c565b33815261095d36848661101a565b906020810191825261097036878961101a565b60408201908152610982368c8661101a565b60608301908152608083019142835260a0840194600186528b5f525f60205260405f209460018060a01b039051166001600160601b0360a01b86541617855560018501905180519067ffffffffffffffff8211610c3c576109ed826109e78554610f04565b85611060565b602090601f8311600114610d2657610a1c92915f9183610c50575b50508160011b915f199060031b1c19161790565b90555b518051600285019167ffffffffffffffff8211610c3c57610a44826109e78554610f04565b602090601f8311600114610cc357610a7292915f9183610c505750508160011b915f199060031b1c19161790565b90555b518051600384019167ffffffffffffffff8211610c3c57610a9a826109e78554610f04565b602090601f8311600114610c5b579180610ace926005979695945f92610c505750508160011b915f199060031b1c19161790565b90555b516004820155019051151560ff80198354169116179055855f52600160205260405f20600160ff1982541617905560025468010000000000000000811015610c3c57806001610b239201600255610eb4565b81546001600160a01b03600392831b81811b19909216918a901b91909117909255541680610bb9575b5090610b9f610bad93927f931a969e25021a4d8aa824f87a88127de415ca755e0411e41d9c6a7f9accf58f979899610b9160405198899860808a5260808a01916110af565b9187830360208901526110af565b9184830360408601526110af565b4260608301520390a280f35b803b15610c38575f80916024604051809481936328432f7360e11b83528c60048401525af18015610c2d5715610b4c577f931a969e25021a4d8aa824f87a88127de415ca755e0411e41d9c6a7f9accf58f969750610bad939291610c205f610b9f93610f58565b5f98975091929350610b4c565b6040513d5f823e3d90fd5b5f80fd5b634e487b7160e01b5f52604160045260245ffd5b015190505f80610a08565b90601f19831691845f52815f20925f5b818110610cab57509160019391856005999897969410610c93575b505050811b019055610ad1565b01515f1960f88460031b161c191690558f8080610c86565b92936020600181928786015181550195019301610c6b565b90601f19831691845f52815f20925f5b818110610d0e5750908460019594939210610cf6575b505050811b019055610a75565b01515f1960f88460031b161c191690558f8080610ce9565b92936020600181928786015181550195019301610cd3565b90601f19831691845f52815f20925f5b818110610d715750908460019594939210610d59575b505050811b019055610a1f565b01515f1960f88460031b161c191690555f8080610d4c565b92936020600181928786015181550195019301610d36565b60405162461bcd60e51b815260206004820152601c60248201527f4167656e7452656769737472793a206e616d65207265717569726564000000006044820152606490fd5b60405162461bcd60e51b815260206004820152602860248201527f4167656e7452656769737472793a20636f6e737469747574696f6e20434944206044820152671c995c5d5a5c995960c21b6064820152608490fd5b62461bcd60e51b815260206004820152602160248201527f4167656e7452656769737472793a20616c7265616479207265676973746572656044820152601960fa1b6064820152608490fd5b600435906001600160a01b0382168203610c3857565b9181601f84011215610c385782359167ffffffffffffffff8311610c385760208381860195010111610c3857565b600254811015610ecc5760025f5260205f2001905f90565b634e487b7160e01b5f52603260045260245ffd5b805180835260209291819084018484015e5f828201840152601f01601f1916010190565b90600182811c92168015610f32575b6020831014610f1e57565b634e487b7160e01b5f52602260045260245ffd5b91607f1691610f13565b60c0810190811067ffffffffffffffff821117610c3c57604052565b90601f8019910116810190811067ffffffffffffffff821117610c3c57604052565b9060405191825f825492610f8d84610f04565b8084529360018116908115610ff85750600114610fb4575b50610fb292500383610f58565b565b90505f9291925260205f20905f915b818310610fdc575050906020610fb2928201015f610fa5565b6020919350806001915483858901015201910190918492610fc3565b905060209250610fb294915060ff191682840152151560051b8201015f610fa5565b92919267ffffffffffffffff8211610c3c5760405191611044601f8201601f191660200184610f58565b829481845281830111610c38578281602093845f960137010152565b601f821161106d57505050565b5f5260205f20906020601f840160051c830193106110a5575b601f0160051c01905b81811061109a575050565b5f815560010161108f565b9091508190611086565b908060209392818452848401375f828201840152601f01601f1916010190565b156110d657565b60405162461bcd60e51b815260206004820152602360248201527f4167656e7452656769737472793a206167656e74206e6f7420726567697374656044820152621c995960ea1b6064820152608490fd5b1561112e57565b60405162461bcd60e51b815260206004820152601b60248201527f4167656e7452656769737472793a20756e617574686f72697a656400000000006044820152606490fd5b1561117a57565b60405162461bcd60e51b815260206004820152601860248201527f4167656e7452656769737472793a206e6f74206f776e657200000000000000006044820152606490fdfea26469706673582212207d75bf8a0f83846de5be9f358454dd085cc9944fbef7ff2ae17f5c0d70deab5d64736f6c634300081a0033","linkReferences":{}},"methodIdentifiers":{"agentAddresses(uint256)":"a7676a63","agents(address)":"fd66091e","covenantProtocol()":"293e0827","deactivate(address)":"3ea053eb","getAgent(address)":"fb3551ff","getAllAgents()":"860e4ac6","isActive(address)":"9f8a13d7","isRegistered(address)":"c3c5a547","owner()":"8da5cb5b","register(address,string,string,string)":"063d93d8","reputationSystem()":"6587eda1","setCovenantProtocol(address)":"fea0e28a","setReputationSystem(address)":"31143cee","totalAgents()":"c5053712","updateConstitution(address,string)":"0d87dc28"},"id":19}